:020000040800F2
:1000000000500020810D0008210D0008270D000878
:100010002D0D0008330D0008390D00080000000008
:100020000000000000000000000000003F0D00087C
:100030004B0D000800000000570D0008630D00087C
:10004000C90D0008C90D0008C90D0008C90D000838
:10005000C90D0008C90D0008C90D0008C90D000828
:10006000C90D0008C90D0008C90D0008C90D000818
:10007000C90D0008C90D0008C90D0008C90D000808
:10008000C90D0008C90D0008C90D0008C90D0008F8
:10009000C90D0008C90D0008C90D0008C90D0008E8
:1000A000C90D0008C90D0008C90D0008C90D0008D8
:1000B000C90D0008C90D0008C90D0008C90D0008C8
:1000C000C90D0008C90D0008C90D0008C90D0008B8
:1000D000C90D0008C90D0008C90D0008C90D0008A8
:1000E000C90D0008C90D0008C90D00080000000076
:1000F0000000000000000000000000000000000000
:0C01000000000000000000005FF808F1A3
:10010C0010B5054C237833B9044B13B10448AFF345
:10011C0000800123237010BD0C00002000000000A3
:10012C008020000808B5034B1BB103490348AFF30B
:10013C00008008BD00000000100000208020000896
:10014C0080B400AF034B00221A7000BFBD4680BCC8
:10015C00704700BF2800002080B500AF6E4B1B78A5
:10016C00042B00F2CB8001A252F823F08D01000881
:10017C00F50100083502000889020008CD020008CC
:10018C0000F0CAF90346012B0BD1634B04221A7001
:10019C00624B1B68624A136000F038FC03465F4AEE
:1001AC001360012202215F4801F0EBF800F02EFCF5
:1001BC0002465A4B1B68D21A13469B0013449B00F1
:1001CC001A4644F24F639A4240F29A80002202216E
:1001DC00544801F0D6F8504B02221A7000F016FC6D
:1001EC0003464E4A13608BE0012201214D4801F079
:1001FC00C8F800F00BFC0246484B1B68D21A134699
:10020C009B0013449B00B3F5FA6F7BD300220121B2
:10021C00444801F0B6F8404B00221A7000F0F6FB8F
:10022C0003463E4A13606DE0012202213D4801F075
:10023C00A8F8012201213B4801F0A3F800F0E6FBED
:10024C000246364B1B68D21A13469B0013449B0084
:10025C00B3F5FA6F58D300220221324801F091F81D
:10026C00002201212F4801F08CF82B4B03221A702D
:10027C0000F0CCFB0346294A136045E001228021A3
:10028C00294801F07EF800F0C1FB0246234B1B68A5
:10029C00D21A13469B0013449B001A4644F24F6338
:1002AC009A4233D9002280211F4801F06AF81A4B78
:1002BC0001221A7000F0AAFB0346184A136025E0CD
:1002CC0001220221174801F05CF800F09FFB024666
:1002DC00124B1B68D21A13469B0013449B001A4600
:1002EC0044F61F639A4213D90B4B00221A700C4B25
:1002FC001B6803F57A73094A136009E000BF08E034
:10030C0000BF06E000BF04E000BF02E000BF00E059
:10031C0000BF00BF80BD00BF280000202C000020C3
:10032C0030000020000C01400008014080B400AFF8
:10033C00034B02221A7000BFBD4680BC704700BF41
:10034C003400002080B500AF704B1B78042B00F2FA
:10035C00D08001A252F823F079030008C3030008EF
:10036C001B04000877040008BF04000801224FF4A6
:10037C008051674801F005F800F048FB0246654BD8
:10038C001B68D21A13469B0013449B001A4645F275
:10039C00EF539A4240F2AF8000224FF480515C48F8
:1003AC0000F0EFFF594B02221A7000F02FFB0346AE
:1003BC00584A13609FE001224FF40051544800F05A
:1003CC00E0FF00F023FB0246524B1B68D21A134687
:1003DC009B0013449B00B3F5FA6FC0F08E80002293
:1003EC004FF400514A4800F0CCFF00F025F90346C9
:1003FC00012B03D1454B04221A7002E0434B00221F
:10040C001A7000F003FB0346424A136075E00122A8
:10041C004FF480513E4800F0B4FF01224FF40051DC
:10042C003B4800F0AEFF00F0F1FA0246394B1B6876
:10043C00D21A13469B0013449B00B3F5FA6F5ED39C
:10044C0000224FF48051324800F09BFF00224FF401
:10045C0000512F4800F095FF2C4B03221A7000F02E
:10046C00D5FA03462B4A136049E001224FF4804130
:10047C00274800F086FF00F0C9FA0246254B1B689E
:10048C00D21A13469B0013449B001A4643F2AF63E7
:10049C009A4236D900224FF480411D4800F071FF7A
:1004AC001A4B01221A7000F0B1FA0346194A136074
:1004BC0027E001224FF48051154800F062FF00F054
:1004CC00A5FA0246134B1B68D21A13469B00134421
:1004DC009B001A4644F61F639A4214D90B4B002218
:1004EC001A7000F093FA03460A4A136000F0AEF853
:1004FC0009E000BF08E000BF06E000BF04E000BF59
:10050C0002E000BF00E000BF00BF80BD340000204F
:10051C00000C01403800002080B400AF054B1B7864
:10052C00042B0CBF01230023DBB21846BD4680BC54
:10053C00704700BF3400002080B400AF1A4B1B780A
:10054C0019461A4A0B465B000B449B0013440433B8
:10055C00174A1A60144B1B781946144A0B465B0059
:10056C000B449B00134408334FF400421A800E4B8B
:10057C001B7819460D4A0B465B000B449B00134439
:10058C000A3301221A70084B1B781946064B18784F
:10059C00064A0B465B000B449B00134402461A7040
:1005AC0000BFBD4680BC70473C00002040000020CE
:1005BC00000C014080B500AF194B1B78184600F0B9
:1005CC006DF80346012B02D1164B01221A70FFF76E
:1005DC00A3FF0346012B10D16423122212491348A6
:1005EC0001F048FB01220221114800F0CAFE002252
:1005FC0004210F4800F0C5FE0FE0642312220D49C0
:10060C000A4801F037FB01220421094800F0B9FE29
:10061C0000220221064800F0B4FE00BF80BD00BFDE
:10062C003C0000203D00002098200008BC00002069
:10063C0000080140AC20000880B400AF024B1B78CE
:10064C001846BD4680BC70473D00002080B400AF0A
:10065C00034B00221A7000BFBD4680BC704700BF20
:10066C003D00002080B400AF00BFBD4680BC704789
:10067C0080B582B000AF0023FB7106E0FB79184611
:10068C0000F022F8FB790133FB71FB79002BF5D0DC
:10069C0000BF00BF0837BD4680BD000080B483B0EA
:1006AC0000AF0346FB71FA79064913465B0013440D
:1006BC009B000B440B331B7818460C37BD4680BC93
:1006CC00704700BF4000002080B584B000AF0346E7
:1006DC00FB71FA79294913465B0013449B000B44C8
:1006EC0004331868FA79254913465B0013449B00C0
:1006FC000B4408331B88194600F02CFE0346FB7391
:10070C00FA791E4913465B0013449B000B440A33D1
:10071C001B78FA7B9A420FD0FA79184913465B0082
:10072C0013449B000B440B3300221A70FB79144AC0
:10073C00002122F813101DE0FB79114A32F8132026
:10074C00013291B20E4A22F81310FB790C4A32F89E
:10075C0013301A4613469B0013449B00632B09DD90
:10076C00FA79064913465B0013449B000B440B3388
:10077C0001221A701037BD4680BD00BF400000201A
:10078C004C00002080B483B000AF03463960FB718D
:10079C0097F90730002B0ADB3B68DAB20C4997F962
:1007AC0007301201D2B20B4483F800230AE03B68F5
:1007BC00DAB20849FB7903F00F03043B1201D2B201
:1007CC000B441A7600BF0C37BD4680BC704700BF87
:1007DC0000E100E000ED00E080B582B000AF786091
:1007EC007B68013BB3F1807F01D301230FE00A4A00
:1007FC007B68013B53600F214FF0FF30FFF7C2FFC6
:10080C00054B00229A60044B07221A6000231846FD
:10081C000837BD4680BD00BF10E000E080B582B057
:10082C0000AF094B1B68094AA2FB03239B0C44F63F
:10083C00206202FB03F37B607868FFF7CDFF00BFFB
:10084C000837BD4680BD00BF0000002083DE1B437F
:10085C0080B487B000AFF860B9607A600123FB7593
:10086C00274B1B781946274A0B469B000B449B00D1
:10087C00134404331B68002B39D1214B1B78042BF8
:10088C0035D81F4B1B7819461E4A0B469B000B4450
:10089C009B001344FA681A60194B1B781946194AC5
:1008AC000B469B000B449B0013440433BA681A603C
:1008BC00134B1B781946134A0B469B000B449B00A9
:1008CC0013440C3300221A700D4B1B7819460D4A39
:1008DC000B469B000B449B00134408337A681A6048
:1008EC00074B1B780133DAB2054B1A7001E0002379
:1008FC00FB75FB7D18461C37BD4680BC704700BF9E
:10090C00B80000205000002080B400AF00BFBD46EE
:10091C0080BC704780B582B000AF0023FB7164E0EF
:10092C00FA79384913469B0013449B000B4404335B
:10093C001B68002B56D0FA79324913469B0013449E
:10094C009B000B440C331B78002B4BD1FA792D49AF
:10095C0013469B0013449B000B4408331B68002B6D
:10096C002ED1FA79274913469B0013449B000B4464
:10097C001B68FA79591E234813469B0013449B00AD
:10098C00034408331960FA791E4913469B0013443B
:10099C009B000B4410331B68591C1A4813469B00D0
:1009AC0013449B00034410331960FA79154913461C
:1009BC009B0013449B000B4404331B68984711E0C5
:1009CC00FA79104913469B0013449B000B440833DF
:1009DC001B68591E0B4813469B0013449B00034491
:1009EC0008331960FB790133FB71FB79042B97D920
:1009FC00054B1B680133044A136000BF0837BD4622
:100A0C0080BD00BF50000020B400002080B400AFB7
:100A1C00024B1B681846BD4680BC7047B4000020D2
:100A2C0080B500AF00F0CCF900F038F800F09CF87D
:100A3C0000F070F8642309221249134801F01AF9E6
:100A4C00FFF774FCFFF77CFBFFF70CFEFFF774FD60
:100A5C00FFF7E4FE00220D490120FFF7F9FE00220A
:100A6C000B490120FFF7F4FE00220A490120FFF791
:100A7C00EFFE002208490120FFF7EAFEFFF744FFD2
:100A8C00FEE700BFC0200008BC0000205103000896
:100A9C00650100087D060008C105000880B590B00E
:100AAC0000AF07F1180328220021184601F0B6FA0E
:100ABC003B1D00221A605A609A60DA601A610223A8
:100ACC00BB610123BB621023FB6200237B6307F134
:100ADC001803184600F06EFC0346002B01D000F002
:100AEC00A5F80F237B600023BB600023FB60002371
:100AFC003B6100237B613B1D0021184600F0DCFEAE
:100B0C000346002B01D000F091F800BF4037BD46E2
:100B1C0080BD000080B500AF114B124A1A60104B1B
:100B2C004FF461325A600E4B00229A600C4B00223B
:100B3C00DA600B4B00221A61094B0C225A61084BEC
:100B4C0000229A61064B0022DA61054801F042F856
:100B5C000346002B01D000F069F800BF80BD00BF38
:100B6C00BC0000200038014080B586B000AF07F112
:100B7C00080300221A605A609A60DA60284B9B695D
:100B8C00274A43F004039361254B9B6903F004034C
:100B9C007B607B68224B9B69214A43F0080393617D
:100BAC001F4B9B6903F008033B603B6800228621C6
:100BBC001C4800F0E6FB002247F203011A4800F043
:100BCC00E0FB8623BB600123FB6000233B61022317
:100BDC007B6107F108031946124800F037FA47F217
:100BEC000303BB600123FB6000233B6102237B6199
:100BFC0007F1080319460C4800F028FA4FF400439B
:100C0C00BB600023FB6002233B6107F1080319461C
:100C1C00054800F01BFA00BF1837BD4680BD00BF69
:100C2C000010024000080140000C014080B400AFED
:100C3C0072B600BFFEE7000080B483B000AF0E4B6D
:100C4C009B690D4A43F0010393610B4B9B6903F0C5
:100C5C0001037B607B68084BDB69074A43F08053D8
:100C6C00D361054BDB6903F080533B603B6800BFED
:100C7C000C37BD4680BC70470010024080B588B070
:100C8C0000AF786007F1100300221A605A609A6076
:100C9C00DA607B681B681C4A934231D11B4B9B6901
:100CAC001A4A43F480439361184B9B6903F48043C5
:100CBC00FB60FB68154B9B69144A43F0040393617A
:100CCC00124B9B6903F00403BB60BB684FF40073C9
:100CDC003B6102237B610323FB6107F1100319467F
:100CEC000B4800F0B3F94FF480633B6100237B6148
:100CFC000023BB6107F110031946054800F0A6F963
:100D0C0000BF2037BD4680BD0038014000100240B6
:100D1C000008014080B400AFFEE780B400AFFEE7EE
:100D2C0080B400AFFEE780B400AFFEE780B400AF44
:100D3C00FEE780B400AF00BFBD4680BC704780B4F6
:100D4C0000AF00BFBD4680BC704780B400AF00BF91
:100D5C00BD4680BC704780B500AF00F077F8FFF758
:100D6C00D9FD00BF80BD80B400AF00BFBD4680BCC4
:100D7C0070470000FFF7F7FF0B480C490C4A0023A3
:100D8C0002E0D458C4500433C4188C42F9D3094A35
:100D9C00094C002301E013600432A242FBD301F0A2
:100DAC0045F9FFF73DFE7047000000200C000020C5
:100DBC00002100080C00002008010020FEE70000C4
:100DCC0080B500AF084B1B68074A43F01003136053
:100DDC00032000F007F90F2000F008F8FFF72CFFB4
:100DEC000023184680BD00BF0020024080B582B0B1
:100DFC0000AF7860124B1A68124B1B7819464FF4EF
:100E0C007A73B3FBF1F3B2FBF3F3184600F011F96C
:100E1C000346002B01D001230EE07B680F2B0AD870
:100E2C00002279684FF0FF3000F0E7F8064A7B6843
:100E3C001360002300E0012318460837BD4680BD2F
:100E4C0000000020080000200400002080B400AF47
:100E5C00054B1B781A46054B1B681344034A136059
:100E6C0000BFBD4680BC7047080000200401002074
:100E7C0080B400AF024B1B681846BD4680BC70475F
:100E8C000401002080B485B000AF78607B6803F06B
:100E9C000703FB600C4BDB68BB60BA684FF6FF03C3
:100EAC001340BB60FB681A02BB68134343F0BF637B
:100EBC0043F40033BB60044ABB68D36000BF1437F3
:100ECC00BD4680BC704700BF00ED00E080B400AFB1
:100EDC00044BDB681B0A03F007031846BD4680BCB5
:100EEC00704700BF00ED00E080B483B000AF034654
:100EFC003960FB7197F90730002B0ADB3B68DAB2DB
:100F0C000C4997F907301201D2B20B4483F8002335
:100F1C000AE03B68DAB20849FB7903F00F03043BA3
:100F2C001201D2B20B441A7600BF0C37BD4680BCFE
:100F3C00704700BF00E100E000ED00E080B489B034
:100F4C0000AFF860B9607A60FB6803F00703FB61DF
:100F5C00FB69C3F10703042B28BF0423BB61FB69A6
:100F6C000433062B02D9FB69033B00E000237B61B1
:100F7C004FF0FF32BB6902FA03F3DA43BB681A4045
:100F8C007B699A404FF0FF317B6901FA03F3D94337
:100F9C007B680B40134318462437BD4680BC704712
:100FAC0080B582B000AF78607B68013BB3F1807F85
:100FBC0001D301230FE00A4A7B68013B53600F21E8
:100FCC004FF0FF30FFF790FF054B00229A60044B67
:100FDC0007221A60002318460837BD4680BD00BFA3
:100FEC0010E000E080B582B000AF78607868FFF761
:100FFC0049FF00BF0837BD4680BD80B586B000AF45
:10100C000346B9607A60FB7300237B61FFF75EFFD8
:10101C0078617A68B9687869FFF790FF024697F9AA
:10102C000F3011461846FFF75FFF00BF1837BD465B
:10103C0080BD80B582B000AF78607868FFF7B0FFF4
:10104C00034618460837BD4680BD000080B48BB0FF
:10105C0000AF7860396000237B6200233B6269E15A
:10106C0001227B6A02FA03F3FB613B681B68FA6995
:10107C001340BB61BA69FB699A4240F058813B68E6
:10108C005B689A4A93425ED0984A934275D8984AC4
:10109C00934258D0964A93426FD8964A934252D074
:1010AC00944A934269D8944A93424CD0924A9342C0
:1010BC0063D8924A934246D0904A93425DD8122B01
:1010CC002AD8122B59D801A252F823F05311000838
:1010DC002D1100083F11000881110008871100082C
:1010EC008711000887110008871100088711000874
:1010FC008711000887110008871100088711000864
:10110C008711000887110008871100088711000853
:10111C003511000849110008794A934213D02CE08C
:10112C003B68DB683B6229E03B68DB6804333B626D
:10113C0024E03B68DB6808333B621FE03B68DB68FC
:10114C000C333B621AE03B689B68002B02D10423F2
:10115C003B6213E03B689B68012B05D108233B6283
:10116C007B68FA691A6109E008233B627B68FA69BB
:10117C005A6103E000233B6200E000BFBB69FF2B18
:10118C0001D87B6801E07B6804337B61BB69FF2B72
:10119C0002D87B6A9B0002E07B6A083B9B003B61A8
:1011AC007B691A680F213B6901FA03F3DB431A4090
:1011BC00396A3B6901FA03F31A437B691A603B688D
:1011CC005B6803F08053002B00F0B1804D4B9B69A2
:1011DC004C4A43F0010393614A4B9B6903F00103B2
:1011EC00BB60BB68484A7B6A9B08023352F82330C9
:1011FC00FB607B6A03F003039B000F2202FA03F3EC
:10120C00DB43FA681340FB607B68404A934213D07F
:10121C007B683F4A93420DD07B683E4A934207D08D
:10122C007B683D4A934201D1032306E0042304E08A
:10123C00022302E0012300E000237A6A02F0030299
:10124C0092009340FA681343FB602F497B6A9B081A
:10125C000233FA6841F823203B685B6803F480137F
:10126C00002B06D02D4B9A682C49BB6913438B601D
:10127C0006E02A4B9A68BB69DB43284913408B6014
:10128C003B685B6803F40013002B06D0234BDA6831
:10129C002249BB691343CB6006E0204BDA68BB697B
:1012AC00DB431E491340CB603B685B6803F400339F
:1012BC00002B06D0194B5A681849BB6913434B6075
:1012CC0006E0164B5A68BB69DB43144913404B606C
:1012DC003B685B6803F48033002B21D00F4B1A68FA
:1012EC000E49BB6913430B6021E000BF00003210B4
:1012FC00000031100000221000002110000012101C
:10130C0000001110001002400000014000080140D4
:10131C00000C014000100140001401400004014089
:10132C000B4B1A68BB69DB43094913400B607B6AA2
:10133C0001337B623B681A687B6A22FA03F3002B49
:10134C007FF48EAE00BF00BF2C37BD4680BC70470B
:10135C000004014080B485B000AF78600B467B8000
:10136C007B689A687B881340002B02D00123FB73A7
:10137C0001E00023FB73FB7B18461437BD4680BC91
:10138C00704780B483B000AF78600B467B80134607
:10139C007B707B78002B03D07A887B681A6103E022
:1013AC007B881A047B681A6100BF0C37BD4680BC71
:1013BC007047000080B586B000AF78607B68002B6A
:1013CC0001D1012372E27B681B6803F00103002B3F
:1013DC0000F08780924B5B6803F00C03042B0CD05D
:1013EC008F4B5B6803F00C03082B12D18C4B5B68A2
:1013FC0003F48033B3F5803F0BD1894B1B6803F4A6
:10140C000033002B6CD07B685B68002B68D1012308
:10141C004CE27B685B68B3F5803F06D1804B1B6860
:10142C007F4A43F4803313602EE07B685B68002BAB
:10143C000CD17B4B1B687A4A23F480331360784BB6
:10144C001B68774A23F4802313601DE07B685B687C
:10145C00B3F5A02F0CD1724B1B68714A43F4802357
:10146C0013606F4B1B686E4A43F4803313600BE0C0
:10147C006B4B1B686A4A23F480331360684B1B6800
:10148C00674A23F4802313607B685B68002B13D0BE
:10149C00FFF7EEFC386108E0FFF7EAFC02463B6917
:1014AC00D31A642B01D9032300E25D4B1B6803F4B0
:1014BC000033002BF0D014E0FFF7DAFC386108E0C1
:1014CC00FFF7D6FC02463B69D31A642B01D90323E0
:1014DC00ECE1534B1B6803F40033002BF0D100E01C
:1014EC0000BF7B681B6803F00203002B63D04C4BDE
:1014FC005B6803F00C03002B0BD0494B5B6803F0CB
:10150C000C03082B1CD1464B5B6803F48033002B77
:10151C0016D1434B1B6803F00203002B05D07B68EC
:10152C001B69012B01D00123C0E13D4B1B6823F04B
:10153C00F8027B685B69DB00394913430B603AE0C6
:10154C007B681B69002B20D0364B01221A60FFF7F9
:10155C008FFC386108E0FFF78BFC02463B69D31A1D
:10156C00022B01D90323A1E12D4B1B6803F00203CD
:10157C00002BF0D02A4B1B6823F0F8027B685B69C8
:10158C00DB00274913430B6015E0264B00221A6041
:10159C00FFF76EFC386108E0FFF76AFC02463B6916
:1015AC00D31A022B01D9032380E11D4B1B6803F0D6
:1015BC000203002BF0D17B681B6803F00803002B9F
:1015CC003AD07B689B69002B19D0174B01221A600B
:1015DC00FFF74EFC386108E0FFF74AFC02463B6916
:1015EC00D31A022B01D9032360E10D4B5B6A03F084
:1015FC000203002BF0D0012000F0CEFA1CE00A4BC5
:10160C0000221A60FFF734FC38610FE0FFF730FC62
:10161C0002463B69D31A022B08D9032346E100BFCB
:10162C00001002400000424280044242924B5B6A2E
:10163C0003F00203002BE9D17B681B6803F0040361
:10164C00002B00F0A6800023FB758B4BDB6903F0AD
:10165C008053002B0DD1884BDB69874A43F08053B4
:10166C00D361854BDB6903F08053BB60BB680123FE
:10167C00FB75824B1B6803F48073002B18D17F4BD6
:10168C001B687E4A43F480731360FFF7F1FB3861EB
:10169C0008E0FFF7EDFB02463B69D31A642B01D936
:1016AC00032303E1754B1B6803F48073002BF0D00C
:1016BC007B68DB68012B06D16F4B1B6A6E4A43F0CB
:1016CC00010313622DE07B68DB68002B0CD16A4BA5
:1016DC001B6A694A23F001031362674B1B6A664A53
:1016EC0023F0040313621CE07B68DB68052B0CD130
:1016FC00614B1B6A604A43F0040313625E4B1B6A26
:10170C005D4A43F0010313620BE05B4B1B6A5A4AC0
:10171C0023F001031362584B1B6A574A23F004034E
:10172C0013627B68DB68002B15D0FFF7A1FB3861D7
:10173C000AE0FFF79DFB02463B69D31A41F288325F
:10174C00934201D90323B1E04B4B1B6A03F0020314
:10175C00002BEED014E0FFF78BFB38610AE0FFF7AB
:10176C0087FB02463B69D31A41F28832934201D976
:10177C0003239BE0404B1B6A03F00203002BEED1CA
:10178C00FB7D012B05D13C4BDB693B4A23F080539D
:10179C00D3617B68DB69002B00F08780364B5B687C
:1017AC0003F00C03082B61D07B68DB69022B46D15C
:1017BC00334B00221A60FFF75BFB386108E0FFF740
:1017CC0057FB02463B69D31A022B01D903236DE068
:1017DC00294B1B6803F00073002BF0D17B681B6A4C
:1017EC00B3F5803F08D1244B5B6823F400327B684F
:1017FC009B68214913434B601F4B5B6823F47412A5
:10180C007B68196A7B685B6A0B431B4913434B600B
:10181C001B4B01221A60FFF72BFB386108E0FFF726
:10182C0027FB02463B69D31A022B01D903233DE067
:10183C00114B1B6803F00073002BF0D035E0104BFC
:10184C0000221A60FFF714FB386108E0FFF710FB69
:10185C0002463B69D31A022B01D9032326E0064B1F
:10186C001B6803F00073002BF0D11EE07B68DB6972
:10187C00012B07D1012319E0001002400070004039
:10188C00600042420B4B5B68FB60FB6803F48032E8
:10189C007B681B6A9A4206D1FB6803F470127B6862
:1018AC005B6A9A4201D0012300E0002318461837E6
:1018BC00BD4680BD0010024080B584B000AF78609A
:1018CC0039607B68002B01D10123D0E06A4B1B6887
:1018DC0003F007033A689A4210D9674B1B6823F050
:1018EC00070265493B6813430B60634B1B6803F0AD
:1018FC0007033A689A4201D00123B8E07B681B6861
:10190C0003F00203002B20D07B681B6803F0040358
:10191C00002B05D0594B5B68584A43F4E063536085
:10192C007B681B6803F00803002B05D0534B5B68E6
:10193C00524A43F460535360504B5B6823F0F002FF
:10194C007B689B684D4913434B607B681B6803F0B5
:10195C000103002B40D07B685B68012B07D1474B00
:10196C001B6803F40033002B15D101237FE07B6847
:10197C005B68022B07D1414B1B6803F00073002BF3
:10198C0009D1012373E03D4B1B6803F00203002BCC
:10199C0001D101236BE0394B5B6823F003027B68B8
:1019AC005B68364913434B60FFF762FAF8600AE054
:1019BC00FFF75EFA0246FB68D31A41F28832934273
:1019CC0001D9032353E02D4B5B6803F00C027B68B9
:1019DC005B689B009A42EBD1274B1B6803F0070313
:1019EC003A689A4210D2244B1B6823F00702224912
:1019FC003B6813430B60204B1B6803F007033A68EA
:101A0C009A4201D0012332E07B681B6803F0040387
:101A1C00002B08D0194B5B6823F4E0627B68DB6811
:101A2C00164913434B607B681B6803F00803002BBB
:101A3C0009D0124B5B6823F460527B681B69DB0096
:101A4C000E4913434B6000F021F802460B4B5B68C8
:101A5C001B0903F00F030A49CB5C22FA03F3094A72
:101A6C001360094B1B681846FFF7C0F90023184692
:101A7C001037BD4680BD00BF002002400010024060
:101A8C00CC200008000000200400002080B487B0A7
:101A9C0000AF0023FB600023BB6000237B610023AD
:101AAC007B6000233B611E4B5B68FB60FB6803F0B3
:101ABC000C03042B02D0082B03D027E0194B3B61FD
:101ACC0027E0FB689B0C03F00F03174AD35C7B6089
:101ADC00FB6803F48033002B10D0114B5B685B0C5C
:101AEC0003F00103114AD35CBB607B680D4A03FB16
:101AFC0002F2BB68B2FBF3F37B6104E07B680C4A37
:101B0C0002FB03F37B617B693B6102E0054B3B61AC
:101B1C0000BF3B6918461C37BD4680BC704700BFF0
:101B2C000010024000127A00E4200008F4200008A3
:101B3C0000093D0080B400AF024B1B681846BD463F
:101B4C0080BC70470000002080B500AFFFF7F2FFAB
:101B5C000246054B5B681B0A03F007030349CB5C89
:101B6C0022FA03F3184680BD00100240DC20000866
:101B7C0080B500AFFFF7DEFF0246054B5B68DB0A62
:101B8C0003F007030349CB5C22FA03F3184680BD2C
:101B9C0000100240DC20000880B485B000AF7860F3
:101BAC000A4B1B680A4AA2FB03235B0A7A6802FBF6
:101BBC0003F3FB6000BFFB685A1EFA60002BF9D1DF
:101BCC0000BF00BF1437BD4680BC7047000000202A
:101BDC00D34D621080B582B000AF78607B68002B6B
:101BEC0001D1012342E07B6893F84130DBB2002B3A
:101BFC0006D17B68002283F840207868FFF73EF816
:101C0C007B68242283F841207B681B68DA687B6838
:101C1C001B6822F40052DA60786800F071F97B6876
:101C2C001B681A697B681B6822F490421A617B68F6
:101C3C001B685A697B681B6822F02A025A617B6810
:101C4C001B68DA687B681B6842F40052DA607B68B8
:101C5C0000225A647B68202283F841207B68202272
:101C6C0083F842207B6800225A6300231846083709
:101C7C00BD4680BD80B58AB002AFF860B9603B60EC
:101C8C001346FB8000237B61FB6893F84130DBB289
:101C9C00202B75D1BB68002B02D0FB88002B01D107
:101CAC0001236EE0FB6800225A64FB68212283F852
:101CBC004120FFF7DDF87861FB68FA889A84FB68AD
:101CCC00FA88DA84FB689B68B3F5805F08D1FB68FF
:101CDC001B69002B04D10023FB61BB68BB6103E0D3
:101CEC00BB68FB610023BB612EE03B6800937B6902
:101CFC0000228021F86800F048F80346002B05D03C
:101D0C00FB68202283F8412003233AE0FB69002B77
:101D1C000BD1BB691B881A46FB681B68C2F308020F
:101D2C005A60BB690233BB6107E0FB691A78FB6838
:101D3C001B685A60FB690133FB61FB68DB8C9BB24F
:101D4C00013B9AB2FB68DA84FB68DB8C9BB2002BFC
:101D5C00CBD13B6800937B6900224021F86800F0EE
:101D6C0014F80346002B05D0FB68202283F8412091
:101D7C00032306E0FB68202283F84120002300E0C7
:101D8C00022318462037BD4680BD80B586B000AF13
:101D9C00F860B9603B601346FB713BE03B6AB3F102
:101DAC00FF3F37D0FFF764F802463B68D31A3A6A14
:101DBC009A4202D33B6A002B01D103233AE0FB6821
:101DCC001B68DB6803F00403002B23D0BB68802B5B
:101DDC0020D0BB68402B1DD0FB681B681B6803F030
:101DEC000803082B16D100237B61FB681B681B685A
:101DFC007B61FB681B685B687B617B69F86800F042
:101E0C001DF8FB6808225A64FB68002283F8402006
:101E1C0001230FE0FB681B681A68BB681340BA68A3
:101E2C009A420CBF01230023DBB21A46FB799A427B
:101E3C00B4D0002318461837BD4680BD80B495B089
:101E4C0000AF78607B681B680C337B637B6B53E85B
:101E5C00003F3B633B6B23F49073FB647B681B6814
:101E6C000C33FA6C3A64FB63F96B3A6C41E800236F
:101E7C00BB63BB6B002BE5D17B681B6814333B62E7
:101E8C003B6A53E8003FFB61FB6923F00103BB6431
:101E9C007B681B681433BA6CFA62BB62B96AFA6A63
:101EAC0041E800237B627B6A002BE5D17B681B6BCE
:101EBC00012B19D17B681B680C33FB60FB6853E862
:101ECC00003FBB60BB6823F010037B647B681B681E
:101EDC000C337A6CBA617B617969BA6941E8002389
:101EEC003B613B69002BE5D17B68202283F84220C3
:101EFC007B6800221A6300BF5437BD4680BC704714
:101F0C0080B584B000AF78607B681B681B6923F4D4
:101F1C0040517B68DA687B681B680A431A617B68EE
:101F2C009A687B681B691A437B685B691343BB60C7
:101F3C007B681B68DB6823F4B05323F00C037A68CE
:101F4C001268B9680B43D3607B681B685B6923F428
:101F5C0040717B689A697B681B680A435A617B688D
:101F6C001B682C4A934203D1FFF702FEF86002E093
:101F7C00FFF7EAFDF860FA6813469B0013449A00D9
:101F8C001A447B685B689B00B2FBF3F3224AA2FB0A
:101F9C0003235B091901FA6813469B0013449A004A
:101FAC001A447B685B689B00B2FBF3F21A4BA3FBF1
:101FBC0002035B09642000FB03F3D31A1B013233C9
:101FCC00154AA2FB03235B0903F0F0031944FA68DA
:101FDC0013469B0013449A001A447B685B689B0071
:101FEC00B2FBF3F20C4BA3FB02035B09642000FB76
:101FFC0003F3D31A1B013233074AA2FB03235B09F9
:10200C0003F00F027B681B680A449A6000BF10370C
:10201C00BD4680BD003801401F85EB51034602448C
:10202C00934200D1704703F8011BF9E770B5002605
:10203C000C4D0D4C641BA410A64209D100F01AF8EB
:10204C0000260A4D0A4C641BA410A64205D170BD93
:10205C0055F8043B98470136EEE755F8043B984792
:10206C000136F2E7F8200008F8200008F8200008F4
:10207C00FC200008F8B500BFF8BC08BC9E467047B1
:0C208C00F8B500BFF8BC08BC9E467047C9
:102098005045444553545249414E5F4F4E4E4E0AA7
:1020A800000000005045444553545249414E5F4F8B
:1020B8006666660A000000005374617274696E6790
:1020C8000A000000000000000000000001020304F4
:1020D80006070809000000000102030402030405C2
:1020E800060708090A0B0C0D0E0F1010010200005C
:0420F80031010008AA
:0420FC000D010008CA
:0C21000000127A00100000000100000036
:0400000508000D8161
:00000001FF
